{
  "contractName": "NFTFactory",
  "abi": [
    {
      "inputs": [
        {
          "internalType": "string",
          "name": "name",
          "type": "string"
        },
        {
          "internalType": "string",
          "name": "symbol",
          "type": "string"
        },
        {
          "internalType": "string",
          "name": "baseTokenURI",
          "type": "string"
        },
        {
          "internalType": "address",
          "name": "contractAddress",
          "type": "address"
        }
      ],
      "stateMutability": "nonpayable",
      "type": "constructor"
    },
    {
      "anonymous": false,
      "inputs": [
        {
          "indexed": true,
          "internalType": "address",
          "name": "owner",
          "type": "address"
        },
        {
          "indexed": true,
          "internalType": "address",
          "name": "approved",
          "type": "address"
        },
        {
          "indexed": true,
          "internalType": "uint256",
          "name": "tokenId",
          "type": "uint256"
        }
      ],
      "name": "Approval",
      "type": "event"
    },
    {
      "anonymous": false,
      "inputs": [
        {
          "indexed": true,
          "internalType": "address",
          "name": "owner",
          "type": "address"
        },
        {
          "indexed": true,
          "internalType": "address",
          "name": "operator",
          "type": "address"
        },
        {
          "indexed": false,
          "internalType": "bool",
          "name": "approved",
          "type": "bool"
        }
      ],
      "name": "ApprovalForAll",
      "type": "event"
    },
    {
      "anonymous": false,
      "inputs": [
        {
          "indexed": false,
          "internalType": "address",
          "name": "account",
          "type": "address"
        }
      ],
      "name": "Paused",
      "type": "event"
    },
    {
      "anonymous": false,
      "inputs": [
        {
          "indexed": true,
          "internalType": "bytes32",
          "name": "role",
          "type": "bytes32"
        },
        {
          "indexed": true,
          "internalType": "bytes32",
          "name": "previousAdminRole",
          "type": "bytes32"
        },
        {
          "indexed": true,
          "internalType": "bytes32",
          "name": "newAdminRole",
          "type": "bytes32"
        }
      ],
      "name": "RoleAdminChanged",
      "type": "event"
    },
    {
      "anonymous": false,
      "inputs": [
        {
          "indexed": true,
          "internalType": "bytes32",
          "name": "role",
          "type": "bytes32"
        },
        {
          "indexed": true,
          "internalType": "address",
          "name": "account",
          "type": "address"
        },
        {
          "indexed": true,
          "internalType": "address",
          "name": "sender",
          "type": "address"
        }
      ],
      "name": "RoleGranted",
      "type": "event"
    },
    {
      "anonymous": false,
      "inputs": [
        {
          "indexed": true,
          "internalType": "bytes32",
          "name": "role",
          "type": "bytes32"
        },
        {
          "indexed": true,
          "internalType": "address",
          "name": "account",
          "type": "address"
        },
        {
          "indexed": true,
          "internalType": "address",
          "name": "sender",
          "type": "address"
        }
      ],
      "name": "RoleRevoked",
      "type": "event"
    },
    {
      "anonymous": false,
      "inputs": [
        {
          "indexed": true,
          "internalType": "address",
          "name": "from",
          "type": "address"
        },
        {
          "indexed": true,
          "internalType": "address",
          "name": "to",
          "type": "address"
        },
        {
          "indexed": true,
          "internalType": "uint256",
          "name": "tokenId",
          "type": "uint256"
        }
      ],
      "name": "Transfer",
      "type": "event"
    },
    {
      "anonymous": false,
      "inputs": [
        {
          "indexed": false,
          "internalType": "address",
          "name": "account",
          "type": "address"
        }
      ],
      "name": "Unpaused",
      "type": "event"
    },
    {
      "inputs": [],
      "name": "DEFAULT_ADMIN_ROLE",
      "outputs": [
        {
          "internalType": "bytes32",
          "name": "",
          "type": "bytes32"
        }
      ],
      "stateMutability": "view",
      "type": "function"
    },
    {
      "inputs": [],
      "name": "MINTER_ROLE",
      "outputs": [
        {
          "internalType": "bytes32",
          "name": "",
          "type": "bytes32"
        }
      ],
      "stateMutability": "view",
      "type": "function"
    },
    {
      "inputs": [],
      "name": "PAUSER_ROLE",
      "outputs": [
        {
          "internalType": "bytes32",
          "name": "",
          "type": "bytes32"
        }
      ],
      "stateMutability": "view",
      "type": "function"
    },
    {
      "inputs": [],
      "name": "_tokenIdTracker",
      "outputs": [
        {
          "internalType": "uint256",
          "name": "_value",
          "type": "uint256"
        }
      ],
      "stateMutability": "view",
      "type": "function"
    },
    {
      "inputs": [
        {
          "internalType": "address",
          "name": "to",
          "type": "address"
        },
        {
          "internalType": "uint256",
          "name": "tokenId",
          "type": "uint256"
        }
      ],
      "name": "approve",
      "outputs": [],
      "stateMutability": "nonpayable",
      "type": "function"
    },
    {
      "inputs": [
        {
          "internalType": "address",
          "name": "owner",
          "type": "address"
        }
      ],
      "name": "balanceOf",
      "outputs": [
        {
          "internalType": "uint256",
          "name": "",
          "type": "uint256"
        }
      ],
      "stateMutability": "view",
      "type": "function"
    },
    {
      "inputs": [
        {
          "internalType": "uint256",
          "name": "tokenId",
          "type": "uint256"
        }
      ],
      "name": "burn",
      "outputs": [],
      "stateMutability": "nonpayable",
      "type": "function"
    },
    {
      "inputs": [
        {
          "internalType": "uint256",
          "name": "tokenId",
          "type": "uint256"
        }
      ],
      "name": "getApproved",
      "outputs": [
        {
          "internalType": "address",
          "name": "",
          "type": "address"
        }
      ],
      "stateMutability": "view",
      "type": "function"
    },
    {
      "inputs": [
        {
          "internalType": "bytes32",
          "name": "role",
          "type": "bytes32"
        }
      ],
      "name": "getRoleAdmin",
      "outputs": [
        {
          "internalType": "bytes32",
          "name": "",
          "type": "bytes32"
        }
      ],
      "stateMutability": "view",
      "type": "function"
    },
    {
      "inputs": [
        {
          "internalType": "bytes32",
          "name": "role",
          "type": "bytes32"
        },
        {
          "internalType": "uint256",
          "name": "index",
          "type": "uint256"
        }
      ],
      "name": "getRoleMember",
      "outputs": [
        {
          "internalType": "address",
          "name": "",
          "type": "address"
        }
      ],
      "stateMutability": "view",
      "type": "function"
    },
    {
      "inputs": [
        {
          "internalType": "bytes32",
          "name": "role",
          "type": "bytes32"
        }
      ],
      "name": "getRoleMemberCount",
      "outputs": [
        {
          "internalType": "uint256",
          "name": "",
          "type": "uint256"
        }
      ],
      "stateMutability": "view",
      "type": "function"
    },
    {
      "inputs": [
        {
          "internalType": "bytes32",
          "name": "role",
          "type": "bytes32"
        },
        {
          "internalType": "address",
          "name": "account",
          "type": "address"
        }
      ],
      "name": "grantRole",
      "outputs": [],
      "stateMutability": "nonpayable",
      "type": "function"
    },
    {
      "inputs": [
        {
          "internalType": "bytes32",
          "name": "role",
          "type": "bytes32"
        },
        {
          "internalType": "address",
          "name": "account",
          "type": "address"
        }
      ],
      "name": "hasRole",
      "outputs": [
        {
          "internalType": "bool",
          "name": "",
          "type": "bool"
        }
      ],
      "stateMutability": "view",
      "type": "function"
    },
    {
      "inputs": [
        {
          "internalType": "address",
          "name": "owner",
          "type": "address"
        },
        {
          "internalType": "address",
          "name": "operator",
          "type": "address"
        }
      ],
      "name": "isApprovedForAll",
      "outputs": [
        {
          "internalType": "bool",
          "name": "",
          "type": "bool"
        }
      ],
      "stateMutability": "view",
      "type": "function"
    },
    {
      "inputs": [
        {
          "internalType": "string",
          "name": "title",
          "type": "string"
        },
        {
          "internalType": "string",
          "name": "dates",
          "type": "string"
        },
        {
          "internalType": "string",
          "name": "place",
          "type": "string"
        },
        {
          "internalType": "address",
          "name": "to",
          "type": "address"
        }
      ],
      "name": "mint",
      "outputs": [],
      "stateMutability": "nonpayable",
      "type": "function"
    },
    {
      "inputs": [],
      "name": "name",
      "outputs": [
        {
          "internalType": "string",
          "name": "",
          "type": "string"
        }
      ],
      "stateMutability": "view",
      "type": "function"
    },
    {
      "inputs": [
        {
          "internalType": "uint256",
          "name": "tokenId",
          "type": "uint256"
        }
      ],
      "name": "ownerOf",
      "outputs": [
        {
          "internalType": "address",
          "name": "",
          "type": "address"
        }
      ],
      "stateMutability": "view",
      "type": "function"
    },
    {
      "inputs": [],
      "name": "pause",
      "outputs": [],
      "stateMutability": "nonpayable",
      "type": "function"
    },
    {
      "inputs": [],
      "name": "paused",
      "outputs": [
        {
          "internalType": "bool",
          "name": "",
          "type": "bool"
        }
      ],
      "stateMutability": "view",
      "type": "function"
    },
    {
      "inputs": [
        {
          "internalType": "bytes32",
          "name": "role",
          "type": "bytes32"
        },
        {
          "internalType": "address",
          "name": "account",
          "type": "address"
        }
      ],
      "name": "renounceRole",
      "outputs": [],
      "stateMutability": "nonpayable",
      "type": "function"
    },
    {
      "inputs": [
        {
          "internalType": "bytes32",
          "name": "role",
          "type": "bytes32"
        },
        {
          "internalType": "address",
          "name": "account",
          "type": "address"
        }
      ],
      "name": "revokeRole",
      "outputs": [],
      "stateMutability": "nonpayable",
      "type": "function"
    },
    {
      "inputs": [
        {
          "internalType": "address",
          "name": "from",
          "type": "address"
        },
        {
          "internalType": "address",
          "name": "to",
          "type": "address"
        },
        {
          "internalType": "uint256",
          "name": "tokenId",
          "type": "uint256"
        }
      ],
      "name": "safeTransferFrom",
      "outputs": [],
      "stateMutability": "nonpayable",
      "type": "function"
    },
    {
      "inputs": [
        {
          "internalType": "address",
          "name": "from",
          "type": "address"
        },
        {
          "internalType": "address",
          "name": "to",
          "type": "address"
        },
        {
          "internalType": "uint256",
          "name": "tokenId",
          "type": "uint256"
        },
        {
          "internalType": "bytes",
          "name": "_data",
          "type": "bytes"
        }
      ],
      "name": "safeTransferFrom",
      "outputs": [],
      "stateMutability": "nonpayable",
      "type": "function"
    },
    {
      "inputs": [
        {
          "internalType": "address",
          "name": "operator",
          "type": "address"
        },
        {
          "internalType": "bool",
          "name": "approved",
          "type": "bool"
        }
      ],
      "name": "setApprovalForAll",
      "outputs": [],
      "stateMutability": "nonpayable",
      "type": "function"
    },
    {
      "inputs": [
        {
          "internalType": "bytes4",
          "name": "interfaceId",
          "type": "bytes4"
        }
      ],
      "name": "supportsInterface",
      "outputs": [
        {
          "internalType": "bool",
          "name": "",
          "type": "bool"
        }
      ],
      "stateMutability": "view",
      "type": "function"
    },
    {
      "inputs": [],
      "name": "symbol",
      "outputs": [
        {
          "internalType": "string",
          "name": "",
          "type": "string"
        }
      ],
      "stateMutability": "view",
      "type": "function"
    },
    {
      "inputs": [
        {
          "internalType": "uint256",
          "name": "index",
          "type": "uint256"
        }
      ],
      "name": "tokenByIndex",
      "outputs": [
        {
          "internalType": "uint256",
          "name": "",
          "type": "uint256"
        }
      ],
      "stateMutability": "view",
      "type": "function"
    },
    {
      "inputs": [
        {
          "internalType": "address",
          "name": "owner",
          "type": "address"
        },
        {
          "internalType": "uint256",
          "name": "index",
          "type": "uint256"
        }
      ],
      "name": "tokenOfOwnerByIndex",
      "outputs": [
        {
          "internalType": "uint256",
          "name": "",
          "type": "uint256"
        }
      ],
      "stateMutability": "view",
      "type": "function"
    },
    {
      "inputs": [
        {
          "internalType": "uint256",
          "name": "tokenId",
          "type": "uint256"
        }
      ],
      "name": "tokenURI",
      "outputs": [
        {
          "internalType": "string",
          "name": "",
          "type": "string"
        }
      ],
      "stateMutability": "view",
      "type": "function"
    },
    {
      "inputs": [],
      "name": "totalSupply",
      "outputs": [
        {
          "internalType": "uint256",
          "name": "",
          "type": "uint256"
        }
      ],
      "stateMutability": "view",
      "type": "function"
    },
    {
      "inputs": [
        {
          "internalType": "address",
          "name": "from",
          "type": "address"
        },
        {
          "internalType": "address",
          "name": "to",
          "type": "address"
        },
        {
          "internalType": "uint256",
          "name": "tokenId",
          "type": "uint256"
        }
      ],
      "name": "transferFrom",
      "outputs": [],
      "stateMutability": "nonpayable",
      "type": "function"
    },
    {
      "inputs": [],
      "name": "unpause",
      "outputs": [],
      "stateMutability": "nonpayable",
      "type": "function"
    }
  ],
  "bytecode": "0x60806040523480156200001157600080fd5b506040516200516238038062005162833981810160405281019062000037919062000574565b83838160029080519060200190620000519291906200043b565b5080600390805190602001906200006a9291906200043b565b5050506000600c60006101000a81548160ff0219169083151502179055508160109080519060200190620000a09291906200043b565b5080600f60006101000a81548173ffffffffffffffffffffffffffffffffffffffff021916908373ffffffffffffffffffffffffffffffffffffffff160217905550620001066000801b620000fa620001a560201b60201c565b620001ad60201b60201c565b6200015a7f9f2df0fed2c77648de5860a4cc508cd0818c85b8b8a1ab4ceeef8d981c8956a6600f60009054906101000a900473ffffffffffffffffffffffffffffffffffffffff16620001ad60201b60201c565b6200019b7f65d7a28e3265b37a6474929f336521b332c1681b933f6cb9f3376673440d862a6200018f620001a560201b60201c565b620001ad60201b60201c565b50505050620007aa565b600033905090565b620001c48282620001f560201b620013421760201c565b620001f081600160008581526020019081526020016000206200020b60201b620013501790919060201c565b505050565b6200020782826200024360201b60201c565b5050565b60006200023b836000018373ffffffffffffffffffffffffffffffffffffffff1660001b6200033460201b60201c565b905092915050565b620002558282620003ae60201b60201c565b6200033057600160008084815260200190815260200160002060000160008373ffffffffffffffffffffffffffffffffffffffff1673ffffffffffffffffffffffffffffffffffffffff16815260200190815260200160002060006101000a81548160ff021916908315150217905550620002d5620001a560201b60201c565b73ffffffffffffffffffffffffffffffffffffffff168173ffffffffffffffffffffffffffffffffffffffff16837f2f8788117e7eff1d82e926ec794901d17c78024a50270940304540a733656f0d60405160405180910390a45b5050565b60006200034883836200041860201b60201c565b620003a3578260000182908060018154018082558091505060019003906000526020600020016000909190919091505582600001805490508360010160008481526020019081526020016000208190555060019050620003a8565b600090505b92915050565b600080600084815260200190815260200160002060000160008373ffffffffffffffffffffffffffffffffffffffff1673ffffffffffffffffffffffffffffffffffffffff16815260200190815260200160002060009054906101000a900460ff16905092915050565b600080836001016000848152602001908152602001600020541415905092915050565b8280546200044990620006fc565b90600052602060002090601f0160209004810192826200046d5760008555620004b9565b82601f106200048857805160ff1916838001178555620004b9565b82800160010185558215620004b9579182015b82811115620004b85782518255916020019190600101906200049b565b5b509050620004c89190620004cc565b5090565b5b80821115620004e7576000816000905550600101620004cd565b5090565b600062000502620004fc846200065f565b6200062b565b9050828152602081018484840111156200051b57600080fd5b62000528848285620006c6565b509392505050565b600081519050620005418162000790565b92915050565b600082601f8301126200055957600080fd5b81516200056b848260208601620004eb565b91505092915050565b600080600080608085870312156200058b57600080fd5b600085015167ffffffffffffffff811115620005a657600080fd5b620005b48782880162000547565b945050602085015167ffffffffffffffff811115620005d257600080fd5b620005e08782880162000547565b935050604085015167ffffffffffffffff811115620005fe57600080fd5b6200060c8782880162000547565b92505060606200061f8782880162000530565b91505092959194509250565b6000604051905081810181811067ffffffffffffffff8211171562000655576200065462000761565b5b8060405250919050565b600067ffffffffffffffff8211156200067d576200067c62000761565b5b601f19601f8301169050602081019050919050565b60006200069f82620006a6565b9050919050565b600073ffffffffffffffffffffffffffffffffffffffff82169050919050565b60005b83811015620006e6578082015181840152602081019050620006c9565b83811115620006f6576000848401525b50505050565b600060028204905060018216806200071557607f821691505b602082108114156200072c576200072b62000732565b5b50919050565b7f4e487b7100000000000000000000000000000000000000000000000000000000600052602260045260246000fd5b7f4e487b7100000000000000000000000000000000000000000000000000000000600052604160045260246000fd5b6200079b8162000692565b8114620007a757600080fd5b50565b6149a880620007ba6000396000f3fe608060405234801561001057600080fd5b50600436106101f05760003560e01c80636352211e1161010f578063a22cb465116100a2578063d539139311610071578063d5391393146105c9578063d547741f146105e7578063e63ab1e914610603578063e985e9c514610621576101f0565b8063a22cb46514610531578063b88d4fde1461054d578063c87b56dd14610569578063ca15c87314610599576101f0565b806391d14854116100de57806391d14854146104a757806395d89b41146104d757806398bcede9146104f5578063a217fddf14610513576101f0565b80636352211e1461040d57806370a082311461043d5780638456cb591461046d5780639010d07c14610477576101f0565b80632f2ff15d1161018757806342842e0e1161015657806342842e0e1461038757806342966c68146103a35780634f6ccce7146103bf5780635c975abb146103ef576101f0565b80632f2ff15d146103155780632f745c591461033157806336568abe146103615780633f4ba83a1461037d576101f0565b806318160ddd116101c357806318160ddd1461028f57806323b872dd146102ad578063248a9ca3146102c95780632aedc3f9146102f9576101f0565b806301ffc9a7146101f557806306fdde0314610225578063081812fc14610243578063095ea7b314610273575b600080fd5b61020f600480360381019061020a91906134c4565b610651565b60405161021c9190614120565b60405180910390f35b61022d610663565b60405161023a9190614156565b60405180910390f35b61025d600480360381019061025891906135c1565b6106f5565b60405161026a91906140b9565b60405180910390f35b61028d600480360381019061028891906133e7565b61077a565b005b610297610892565b6040516102a49190614498565b60405180910390f35b6102c760048036038101906102c291906132e1565b61089f565b005b6102e360048036038101906102de9190613423565b6108ff565b6040516102f0919061413b565b60405180910390f35b610313600480360381019061030e9190613516565b61091e565b005b61032f600480360381019061032a919061344c565b6109b1565b005b61034b600480360381019061034691906133e7565b6109e5565b6040516103589190614498565b60405180910390f35b61037b6004803603810190610376919061344c565b610a8a565b005b610385610abe565b005b6103a1600480360381019061039c91906132e1565b610b38565b005b6103bd60048036038101906103b891906135c1565b610b58565b005b6103d960048036038101906103d491906135c1565b610bb4565b6040516103e69190614498565b60405180910390f35b6103f7610c4b565b6040516104049190614120565b60405180910390f35b610427600480360381019061042291906135c1565b610c62565b60405161043491906140b9565b60405180910390f35b6104576004803603810190610452919061327c565b610d14565b6040516104649190614498565b60405180910390f35b610475610dcc565b005b610491600480360381019061048c9190613488565b610e46565b60405161049e91906140b9565b60405180910390f35b6104c160048036038101906104bc919061344c565b610e75565b6040516104ce9190614120565b60405180910390f35b6104df610edf565b6040516104ec9190614156565b60405180910390f35b6104fd610f71565b60405161050a9190614498565b60405180910390f35b61051b610f7d565b604051610528919061413b565b60405180910390f35b61054b600480360381019061054691906133ab565b610f84565b005b61056760048036038101906105629190613330565b611105565b005b610583600480360381019061057e91906135c1565b611167565b6040516105909190614156565b60405180910390f35b6105b360048036038101906105ae9190613423565b61120e565b6040516105c09190614498565b60405180910390f35b6105d1611232565b6040516105de919061413b565b60405180910390f35b61060160048036038101906105fc919061344c565b611256565b005b61060b61128a565b604051610618919061413b565b60405180910390f35b61063b600480360381019061063691906132a5565b6112ae565b6040516106489190614120565b60405180910390f35b600061065c82611380565b9050919050565b60606002805461067290614786565b80601f016020809104026020016040519081016040528092919081815260200182805461069e90614786565b80156106eb5780601f106106c0576101008083540402835291602001916106eb565b820191906000526020600020905b8154815290600101906020018083116106ce57829003601f168201915b5050505050905090565b6000610700826113fa565b61073f576040517f08c379a000000000000000000000000000000000000000000000000000000000815260040161073690614358565b60405180910390fd5b6006600083815260200190815260200160002060009054906101000a900473ffffffffffffffffffffffffffffffffffffffff169050919050565b600061078582610c62565b90508073ffffffffffffffffffffffffffffffffffffffff168373ffffffffffffffffffffffffffffffffffffffff1614156107f6576040517f08c379a00000000000000000000000000000000000000000000000000000000081526004016107ed906143b8565b60405180910390fd5b8073ffffffffffffffffffffffffffffffffffffffff16610815611466565b73ffffffffffffffffffffffffffffffffffffffff16148061084457506108438161083e611466565b6112ae565b5b610883576040517f08c379a000000000000000000000000000000000000000000000000000000000815260040161087a906142d8565b60405180910390fd5b61088d838361146e565b505050565b6000600a80549050905090565b6108b06108aa611466565b82611527565b6108ef576040517f08c379a00000000000000000000000000000000000000000000000000000000081526004016108e6906143d8565b60405180910390fd5b6108fa838383611605565b505050565b6000806000838152602001908152602001600020600101549050919050565b61094f7f9f2df0fed2c77648de5860a4cc508cd0818c85b8b8a1ab4ceeef8d981c8956a661094a611466565b610e75565b61098e576040517f08c379a000000000000000000000000000000000000000000000000000000000815260040161098590614418565b60405180910390fd5b6109a18161099c600d611861565b61186f565b6109ab600d611a3d565b50505050565b6109bb8282611a53565b6109e0816001600085815260200190815260200160002061135090919063ffffffff16565b505050565b60006109f083610d14565b8210610a31576040517f08c379a0000000000000000000000000000000000000000000000000000000008152600401610a28906141d8565b60405180910390fd5b600860008473ffffffffffffffffffffffffffffffffffffffff1673ffffffffffffffffffffffffffffffffffffffff168152602001908152602001600020600083815260200190815260200160002054905092915050565b610a948282611a7c565b610ab98160016000858152602001908152602001600020611aff90919063ffffffff16565b505050565b610aef7f65d7a28e3265b37a6474929f336521b332c1681b933f6cb9f3376673440d862a610aea611466565b610e75565b610b2e576040517f08c379a0000000000000000000000000000000000000000000000000000000008152600401610b2590614458565b60405180910390fd5b610b36611b2f565b565b610b5383838360405180602001604052806000815250611105565b505050565b610b69610b63611466565b82611527565b610ba8576040517f08c379a0000000000000000000000000000000000000000000000000000000008152600401610b9f90614438565b60405180910390fd5b610bb181611bd1565b50565b6000610bbe610892565b8210610bff576040517f08c379a0000000000000000000000000000000000000000000000000000000008152600401610bf6906143f8565b60405180910390fd5b600a8281548110610c39577f4e487b7100000000000000000000000000000000000000000000000000000000600052603260045260246000fd5b90600052602060002001549050919050565b6000600c60009054906101000a900460ff16905090565b6000806004600084815260200190815260200160002060009054906101000a900473ffffffffffffffffffffffffffffffffffffffff169050600073ffffffffffffffffffffffffffffffffffffffff168173ffffffffffffffffffffffffffffffffffffffff161415610d0b576040517f08c379a0000000000000000000000000000000000000000000000000000000008152600401610d0290614318565b60405180910390fd5b80915050919050565b60008073ffffffffffffffffffffffffffffffffffffffff168273ffffffffffffffffffffffffffffffffffffffff161415610d85576040517f08c379a0000000000000000000000000000000000000000000000000000000008152600401610d7c906142f8565b60405180910390fd5b600560008373ffffffffffffffffffffffffffffffffffffffff1673ffffffffffffffffffffffffffffffffffffffff168152602001908152602001600020549050919050565b610dfd7f65d7a28e3265b37a6474929f336521b332c1681b933f6cb9f3376673440d862a610df8611466565b610e75565b610e3c576040517f08c379a0000000000000000000000000000000000000000000000000000000008152600401610e3390614238565b60405180910390fd5b610e44611ce2565b565b6000610e6d8260016000868152602001908152602001600020611d8590919063ffffffff16565b905092915050565b600080600084815260200190815260200160002060000160008373ffffffffffffffffffffffffffffffffffffffff1673ffffffffffffffffffffffffffffffffffffffff16815260200190815260200160002060009054906101000a900460ff16905092915050565b606060038054610eee90614786565b80601f0160208091040260200160405190810160405280929190818152602001828054610f1a90614786565b8015610f675780601f10610f3c57610100808354040283529160200191610f67565b820191906000526020600020905b815481529060010190602001808311610f4a57829003601f168201915b5050505050905090565b600d8060000154905081565b6000801b81565b610f8c611466565b73ffffffffffffffffffffffffffffffffffffffff168273ffffffffffffffffffffffffffffffffffffffff161415610ffa576040517f08c379a0000000000000000000000000000000000000000000000000000000008152600401610ff190614278565b60405180910390fd5b8060076000611007611466565b73ffffffffffffffffffffffffffffffffffffffff1673ffffffffffffffffffffffffffffffffffffffff16815260200190815260200160002060008473ffffffffffffffffffffffffffffffffffffffff1673ffffffffffffffffffffffffffffffffffffffff16815260200190815260200160002060006101000a81548160ff0219169083151502179055508173ffffffffffffffffffffffffffffffffffffffff166110b4611466565b73ffffffffffffffffffffffffffffffffffffffff167f17307eab39ab6107e8899845ad3d59bd9653f200f220920489ca2b5937696c31836040516110f99190614120565b60405180910390a35050565b611116611110611466565b83611527565b611155576040517f08c379a000000000000000000000000000000000000000000000000000000000815260040161114c906143d8565b60405180910390fd5b61116184848484611d9f565b50505050565b6060611172826113fa565b6111b1576040517f08c379a00000000000000000000000000000000000000000000000000000000081526004016111a890614398565b60405180910390fd5b60006111bb611dfb565b905060008151116111db5760405180602001604052806000815250611206565b806111e584611e8d565b6040516020016111f692919061405b565b6040516020818303038152906040525b915050919050565b600061122b6001600084815260200190815260200160002061203a565b9050919050565b7f9f2df0fed2c77648de5860a4cc508cd0818c85b8b8a1ab4ceeef8d981c8956a681565b611260828261204f565b6112858160016000858152602001908152602001600020611aff90919063ffffffff16565b505050565b7f65d7a28e3265b37a6474929f336521b332c1681b933f6cb9f3376673440d862a81565b6000600760008473ffffffffffffffffffffffffffffffffffffffff1673ffffffffffffffffffffffffffffffffffffffff16815260200190815260200160002060008373ffffffffffffffffffffffffffffffffffffffff1673ffffffffffffffffffffffffffffffffffffffff16815260200190815260200160002060009054906101000a900460ff16905092915050565b61134c8282612078565b5050565b6000611378836000018373ffffffffffffffffffffffffffffffffffffffff1660001b612158565b905092915050565b60007f780e9d63000000000000000000000000000000000000000000000000000000007bffffffffffffffffffffffffffffffffffffffffffffffffffffffff1916827bffffffffffffffffffffffffffffffffffffffffffffffffffffffff191614806113f357506113f2826121c8565b5b9050919050565b60008073ffffffffffffffffffffffffffffffffffffffff166004600084815260200190815260200160002060009054906101000a900473ffffffffffffffffffffffffffffffffffffffff1673ffffffffffffffffffffffffffffffffffffffff1614159050919050565b600033905090565b816006600083815260200190815260200160002060006101000a81548173ffffffffffffffffffffffffffffffffffffffff021916908373ffffffffffffffffffffffffffffffffffffffff160217905550808273ffffffffffffffffffffffffffffffffffffffff166114e183610c62565b73ffffffffffffffffffffffffffffffffffffffff167f8c5be1e5ebec7d5bd14f71427d1e84f3dd0314c0f7b2291e5b200ac8c7c3b92560405160405180910390a45050565b6000611532826113fa565b611571576040517f08c379a000000000000000000000000000000000000000000000000000000000815260040161156890614298565b60405180910390fd5b600061157c83610c62565b90508073ffffffffffffffffffffffffffffffffffffffff168473ffffffffffffffffffffffffffffffffffffffff1614806115eb57508373ffffffffffffffffffffffffffffffffffffffff166115d3846106f5565b73ffffffffffffffffffffffffffffffffffffffff16145b806115fc57506115fb81856112ae565b5b91505092915050565b8273ffffffffffffffffffffffffffffffffffffffff1661162582610c62565b73ffffffffffffffffffffffffffffffffffffffff161461167b576040517f08c379a000000000000000000000000000000000000000000000000000000000815260040161167290614378565b60405180910390fd5b600073ffffffffffffffffffffffffffffffffffffffff168273ffffffffffffffffffffffffffffffffffffffff1614156116eb576040517f08c379a00000000000000000000000000000000000000000000000000000000081526004016116e290614258565b60405180910390fd5b6116f68383836122aa565b61170160008261146e565b6001600560008573ffffffffffffffffffffffffffffffffffffffff1673ffffffffffffffffffffffffffffffffffffffff16815260200190815260200160002060008282546117519190614668565b925050819055506001600560008473ffffffffffffffffffffffffffffffffffffffff1673ffffffffffffffffffffffffffffffffffffffff16815260200190815260200160002060008282546117a89190614587565b92505081905550816004600083815260200190815260200160002060006101000a81548173ffffffffffffffffffffffffffffffffffffffff021916908373ffffffffffffffffffffffffffffffffffffffff160217905550808273ffffffffffffffffffffffffffffffffffffffff168473ffffffffffffffffffffffffffffffffffffffff167fddf252ad1be2c89b69c2b068fc378daa952ba7f163c4a11628f55a4df523b3ef60405160405180910390a4505050565b600081600001549050919050565b600073ffffffffffffffffffffffffffffffffffffffff168273ffffffffffffffffffffffffffffffffffffffff1614156118df576040517f08c379a00000000000000000000000000000000000000000000000000000000081526004016118d690614338565b60405180910390fd5b6118e8816113fa565b15611928576040517f08c379a000000000000000000000000000000000000000000000000000000000815260040161191f90614218565b60405180910390fd5b611934600083836122aa565b6001600560008473ffffffffffffffffffffffffffffffffffffffff1673ffffffffffffffffffffffffffffffffffffffff16815260200190815260200160002060008282546119849190614587565b92505081905550816004600083815260200190815260200160002060006101000a81548173ffffffffffffffffffffffffffffffffffffffff021916908373ffffffffffffffffffffffffffffffffffffffff160217905550808273ffffffffffffffffffffffffffffffffffffffff16600073ffffffffffffffffffffffffffffffffffffffff167fddf252ad1be2c89b69c2b068fc378daa952ba7f163c4a11628f55a4df523b3ef60405160405180910390a45050565b6001816000016000828254019250508190555050565b611a5c826108ff565b611a6d81611a68611466565b6122ba565b611a778383612078565b505050565b611a84611466565b73ffffffffffffffffffffffffffffffffffffffff168173ffffffffffffffffffffffffffffffffffffffff1614611af1576040517f08c379a0000000000000000000000000000000000000000000000000000000008152600401611ae890614478565b60405180910390fd5b611afb8282612357565b5050565b6000611b27836000018373ffffffffffffffffffffffffffffffffffffffff1660001b612438565b905092915050565b611b37610c4b565b611b76576040517f08c379a0000000000000000000000000000000000000000000000000000000008152600401611b6d906141b8565b60405180910390fd5b6000600c60006101000a81548160ff0219169083151502179055507f5db9ee0a495bf2e6ff9c91a7834c1ba4fdd244a5e8aa4e537bd38aeae4b073aa611bba611466565b604051611bc791906140b9565b60405180910390a1565b6000611bdc82610c62565b9050611bea816000846122aa565b611bf560008361146e565b6001600560008373ffffffffffffffffffffffffffffffffffffffff1673ffffffffffffffffffffffffffffffffffffffff1681526020019081526020016000206000828254611c459190614668565b925050819055506004600083815260200190815260200160002060006101000a81549073ffffffffffffffffffffffffffffffffffffffff021916905581600073ffffffffffffffffffffffffffffffffffffffff168273ffffffffffffffffffffffffffffffffffffffff167fddf252ad1be2c89b69c2b068fc378daa952ba7f163c4a11628f55a4df523b3ef60405160405180910390a45050565b611cea610c4b565b15611d2a576040517f08c379a0000000000000000000000000000000000000000000000000000000008152600401611d21906142b8565b60405180910390fd5b6001600c60006101000a81548160ff0219169083151502179055507f62e78cea01bee320cd4e420270b5ea74000d11b0c9f74754ebdbfc544b05a258611d6e611466565b604051611d7b91906140b9565b60405180910390a1565b6000611d9483600001836125be565b60001c905092915050565b611daa848484611605565b611db68484848461260f565b611df5576040517f08c379a0000000000000000000000000000000000000000000000000000000008152600401611dec906141f8565b60405180910390fd5b50505050565b6060600e8054611e0a90614786565b80601f0160208091040260200160405190810160405280929190818152602001828054611e3690614786565b8015611e835780601f10611e5857610100808354040283529160200191611e83565b820191906000526020600020905b815481529060010190602001808311611e6657829003601f168201915b5050505050905090565b60606000821415611ed5576040518060400160405280600181526020017f30000000000000000000000000000000000000000000000000000000000000008152509050612035565b600082905060005b60008214611f07578080611ef0906147b8565b915050600a82611f0091906145dd565b9150611edd565b60008167ffffffffffffffff811115611f49577f4e487b7100000000000000000000000000000000000000000000000000000000600052604160045260246000fd5b6040519080825280601f01601f191660200182016040528015611f7b5781602001600182028036833780820191505090505b5090505b6000851461202e57600182611f949190614668565b9150600a85611fa39190614801565b6030611faf9190614587565b60f81b818381518110611feb577f4e487b7100000000000000000000000000000000000000000000000000000000600052603260045260246000fd5b60200101907effffffffffffffffffffffffffffffffffffffffffffffffffffffffffffff1916908160001a905350600a8561202791906145dd565b9450611f7f565b8093505050505b919050565b6000612048826000016127a6565b9050919050565b612058826108ff565b61206981612064611466565b6122ba565b6120738383612357565b505050565b6120828282610e75565b61215457600160008084815260200190815260200160002060000160008373ffffffffffffffffffffffffffffffffffffffff1673ffffffffffffffffffffffffffffffffffffffff16815260200190815260200160002060006101000a81548160ff0219169083151502179055506120f9611466565b73ffffffffffffffffffffffffffffffffffffffff168173ffffffffffffffffffffffffffffffffffffffff16837f2f8788117e7eff1d82e926ec794901d17c78024a50270940304540a733656f0d60405160405180910390a45b5050565b600061216483836127b7565b6121bd5782600001829080600181540180825580915050600190039060005260206000200160009091909190915055826000018054905083600101600084815260200190815260200160002081905550600190506121c2565b600090505b92915050565b60007f80ac58cd000000000000000000000000000000000000000000000000000000007bffffffffffffffffffffffffffffffffffffffffffffffffffffffff1916827bffffffffffffffffffffffffffffffffffffffffffffffffffffffff1916148061229357507f5b5e139f000000000000000000000000000000000000000000000000000000007bffffffffffffffffffffffffffffffffffffffffffffffffffffffff1916827bffffffffffffffffffffffffffffffffffffffffffffffffffffffff1916145b806122a357506122a2826127da565b5b9050919050565b6122b5838383612854565b505050565b6122c48282610e75565b612353576122e98173ffffffffffffffffffffffffffffffffffffffff1660146128ac565b6122f78360001c60206128ac565b60405160200161230892919061407f565b6040516020818303038152906040526040517f08c379a000000000000000000000000000000000000000000000000000000000815260040161234a9190614156565b60405180910390fd5b5050565b6123618282610e75565b1561243457600080600084815260200190815260200160002060000160008373ffffffffffffffffffffffffffffffffffffffff1673ffffffffffffffffffffffffffffffffffffffff16815260200190815260200160002060006101000a81548160ff0219169083151502179055506123d9611466565b73ffffffffffffffffffffffffffffffffffffffff168173ffffffffffffffffffffffffffffffffffffffff16837ff6391f5c32d9c69d2a47ea670b442974b53935d1edc7fd64eb21e047a839171b60405160405180910390a45b5050565b600080836001016000848152602001908152602001600020549050600081146125b257600060018261246a9190614668565b90506000600186600001805490506124829190614668565b905081811461253d5760008660000182815481106124c9577f4e487b7100000000000000000000000000000000000000000000000000000000600052603260045260246000fd5b9060005260206000200154905080876000018481548110612513577f4e487b7100000000000000000000000000000000000000000000000000000000600052603260045260246000fd5b90600052602060002001819055508387600101600083815260200190815260200160002081905550505b85600001805480612577577f4e487b7100000000000000000000000000000000000000000000000000000000600052603160045260246000fd5b6001900381819060005260206000200160009055905585600101600086815260200190815260200160002060009055600193505050506125b8565b60009150505b92915050565b60008260000182815481106125fc577f4e487b7100000000000000000000000000000000000000000000000000000000600052603260045260246000fd5b9060005260206000200154905092915050565b60006126308473ffffffffffffffffffffffffffffffffffffffff16612ba6565b15612799578373ffffffffffffffffffffffffffffffffffffffff1663150b7a02612659611466565b8786866040518563ffffffff1660e01b815260040161267b94939291906140d4565b602060405180830381600087803b15801561269557600080fd5b505af19250505080156126c657506040513d601f19601f820116820180604052508101906126c391906134ed565b60015b612749573d80600081146126f6576040519150601f19603f3d011682016040523d82523d6000602084013e6126fb565b606091505b50600081511415612741576040517f08c379a0000000000000000000000000000000000000000000000000000000008152600401612738906141f8565b60405180910390fd5b805181602001fd5b63150b7a0260e01b7bffffffffffffffffffffffffffffffffffffffffffffffffffffffff1916817bffffffffffffffffffffffffffffffffffffffffffffffffffffffff19161491505061279e565b600190505b949350505050565b600081600001805490509050919050565b600080836001016000848152602001908152602001600020541415905092915050565b60007f5a05180f000000000000000000000000000000000000000000000000000000007bffffffffffffffffffffffffffffffffffffffffffffffffffffffff1916827bffffffffffffffffffffffffffffffffffffffffffffffffffffffff1916148061284d575061284c82612bb9565b5b9050919050565b61285f838383612c33565b612867610c4b565b156128a7576040517f08c379a000000000000000000000000000000000000000000000000000000000815260040161289e90614198565b60405180910390fd5b505050565b6060600060028360026128bf919061460e565b6128c99190614587565b67ffffffffffffffff811115612908577f4e487b7100000000000000000000000000000000000000000000000000000000600052604160045260246000fd5b6040519080825280601f01601f19166020018201604052801561293a5781602001600182028036833780820191505090505b5090507f300000000000000000000000000000000000000000000000000000000000000081600081518110612998577f4e487b7100000000000000000000000000000000000000000000000000000000600052603260045260246000fd5b60200101907effffffffffffffffffffffffffffffffffffffffffffffffffffffffffffff1916908160001a9053507f780000000000000000000000000000000000000000000000000000000000000081600181518110612a22577f4e487b7100000000000000000000000000000000000000000000000000000000600052603260045260246000fd5b60200101907effffffffffffffffffffffffffffffffffffffffffffffffffffffffffffff1916908160001a90535060006001846002612a62919061460e565b612a6c9190614587565b90505b6001811115612b58577f3031323334353637383961626364656600000000000000000000000000000000600f861660108110612ad4577f4e487b7100000000000000000000000000000000000000000000000000000000600052603260045260246000fd5b1a60f81b828281518110612b11577f4e487b7100000000000000000000000000000000000000000000000000000000600052603260045260246000fd5b60200101907effffffffffffffffffffffffffffffffffffffffffffffffffffffffffffff1916908160001a905350600485901c945080612b519061475c565b9050612a6f565b5060008414612b9c576040517f08c379a0000000000000000000000000000000000000000000000000000000008152600401612b9390614178565b60405180910390fd5b8091505092915050565b600080823b905060008111915050919050565b60007f7965db0b000000000000000000000000000000000000000000000000000000007bffffffffffffffffffffffffffffffffffffffffffffffffffffffff1916827bffffffffffffffffffffffffffffffffffffffffffffffffffffffff19161480612c2c5750612c2b82612d47565b5b9050919050565b612c3e838383612db1565b600073ffffffffffffffffffffffffffffffffffffffff168373ffffffffffffffffffffffffffffffffffffffff161415612c8157612c7c81612db6565b612cc0565b8173ffffffffffffffffffffffffffffffffffffffff168373ffffffffffffffffffffffffffffffffffffffff1614612cbf57612cbe8382612dff565b5b5b600073ffffffffffffffffffffffffffffffffffffffff168273ffffffffffffffffffffffffffffffffffffffff161415612d0357612cfe81612f6c565b612d42565b8273ffffffffffffffffffffffffffffffffffffffff168273ffffffffffffffffffffffffffffffffffffffff1614612d4157612d4082826130af565b5b5b505050565b60007f01ffc9a7000000000000000000000000000000000000000000000000000000007bffffffffffffffffffffffffffffffffffffffffffffffffffffffff1916827bffffffffffffffffffffffffffffffffffffffffffffffffffffffff1916149050919050565b505050565b600a80549050600b600083815260200190815260200160002081905550600a81908060018154018082558091505060019003906000526020600020016000909190919091505550565b60006001612e0c84610d14565b612e169190614668565b9050600060096000848152602001908152602001600020549050818114612efb576000600860008673ffffffffffffffffffffffffffffffffffffffff1673ffffffffffffffffffffffffffffffffffffffff168152602001908152602001600020600084815260200190815260200160002054905080600860008773ffffffffffffffffffffffffffffffffffffffff1673ffffffffffffffffffffffffffffffffffffffff168152602001908152602001600020600084815260200190815260200160002081905550816009600083815260200190815260200160002081905550505b6009600084815260200190815260200160002060009055600860008573ffffffffffffffffffffffffffffffffffffffff1673ffffffffffffffffffffffffffffffffffffffff16815260200190815260200160002060008381526020019081526020016000206000905550505050565b60006001600a80549050612f809190614668565b90506000600b60008481526020019081526020016000205490506000600a8381548110612fd6577f4e487b7100000000000000000000000000000000000000000000000000000000600052603260045260246000fd5b9060005260206000200154905080600a838154811061301e577f4e487b7100000000000000000000000000000000000000000000000000000000600052603260045260246000fd5b906000526020600020018190555081600b600083815260200190815260200160002081905550600b600085815260200190815260200160002060009055600a805480613093577f4e487b7100000000000000000000000000000000000000000000000000000000600052603160045260246000fd5b6001900381819060005260206000200160009055905550505050565b60006130ba83610d14565b905081600860008573ffffffffffffffffffffffffffffffffffffffff1673ffffffffffffffffffffffffffffffffffffffff168152602001908152602001600020600083815260200190815260200160002081905550806009600084815260200190815260200160002081905550505050565b600061314161313c846144e4565b6144b3565b90508281526020810184848401111561315957600080fd5b61316484828561471a565b509392505050565b600061317f61317a84614514565b6144b3565b90508281526020810184848401111561319757600080fd5b6131a284828561471a565b509392505050565b6000813590506131b9816148ff565b92915050565b6000813590506131ce81614916565b92915050565b6000813590506131e38161492d565b92915050565b6000813590506131f881614944565b92915050565b60008151905061320d81614944565b92915050565b600082601f83011261322457600080fd5b813561323484826020860161312e565b91505092915050565b600082601f83011261324e57600080fd5b813561325e84826020860161316c565b91505092915050565b6000813590506132768161495b565b92915050565b60006020828403121561328e57600080fd5b600061329c848285016131aa565b91505092915050565b600080604083850312156132b857600080fd5b60006132c6858286016131aa565b92505060206132d7858286016131aa565b9150509250929050565b6000806000606084860312156132f657600080fd5b6000613304868287016131aa565b9350506020613315868287016131aa565b925050604061332686828701613267565b9150509250925092565b6000806000806080858703121561334657600080fd5b6000613354878288016131aa565b9450506020613365878288016131aa565b935050604061337687828801613267565b925050606085013567ffffffffffffffff81111561339357600080fd5b61339f87828801613213565b91505092959194509250565b600080604083850312156133be57600080fd5b60006133cc858286016131aa565b92505060206133dd858286016131bf565b9150509250929050565b600080604083850312156133fa57600080fd5b6000613408858286016131aa565b925050602061341985828601613267565b9150509250929050565b60006020828403121561343557600080fd5b6000613443848285016131d4565b91505092915050565b6000806040838503121561345f57600080fd5b600061346d858286016131d4565b925050602061347e858286016131aa565b9150509250929050565b6000806040838503121561349b57600080fd5b60006134a9858286016131d4565b92505060206134ba85828601613267565b9150509250929050565b6000602082840312156134d657600080fd5b60006134e4848285016131e9565b91505092915050565b6000602082840312156134ff57600080fd5b600061350d848285016131fe565b91505092915050565b6000806000806080858703121561352c57600080fd5b600085013567ffffffffffffffff81111561354657600080fd5b6135528782880161323d565b945050602085013567ffffffffffffffff81111561356f57600080fd5b61357b8782880161323d565b935050604085013567ffffffffffffffff81111561359857600080fd5b6135a48782880161323d565b92505060606135b5878288016131aa565b91505092959194509250565b6000602082840312156135d357600080fd5b60006135e184828501613267565b91505092915050565b6135f38161469c565b82525050565b613602816146ae565b82525050565b613611816146ba565b82525050565b600061362282614544565b61362c818561455a565b935061363c818560208601614729565b613645816148ee565b840191505092915050565b600061365b8261454f565b613665818561456b565b9350613675818560208601614729565b61367e816148ee565b840191505092915050565b60006136948261454f565b61369e818561457c565b93506136ae818560208601614729565b80840191505092915050565b60006136c760208361456b565b91507f537472696e67733a20686578206c656e67746820696e73756666696369656e746000830152602082019050919050565b6000613707602b8361456b565b91507f4552433732315061757361626c653a20746f6b656e207472616e73666572207760008301527f68696c65207061757365640000000000000000000000000000000000000000006020830152604082019050919050565b600061376d60148361456b565b91507f5061757361626c653a206e6f74207061757365640000000000000000000000006000830152602082019050919050565b60006137ad602b8361456b565b91507f455243373231456e756d657261626c653a206f776e657220696e646578206f7560008301527f74206f6620626f756e64730000000000000000000000000000000000000000006020830152604082019050919050565b600061381360328361456b565b91507f4552433732313a207472616e7366657220746f206e6f6e20455243373231526560008301527f63656976657220696d706c656d656e74657200000000000000000000000000006020830152604082019050919050565b6000613879601c8361456b565b91507f4552433732313a20746f6b656e20616c7265616479206d696e746564000000006000830152602082019050919050565b60006138b9603e8361456b565b91507f4552433732315072657365744d696e7465725061757365724175746f49643a2060008301527f6d75737420686176652070617573657220726f6c6520746f20706175736500006020830152604082019050919050565b600061391f60248361456b565b91507f4552433732313a207472616e7366657220746f20746865207a65726f2061646460008301527f72657373000000000000000000000000000000000000000000000000000000006020830152604082019050919050565b600061398560198361456b565b91507f4552433732313a20617070726f766520746f2063616c6c6572000000000000006000830152602082019050919050565b60006139c5602c8361456b565b91507f4552433732313a206f70657261746f7220717565727920666f72206e6f6e657860008301527f697374656e7420746f6b656e00000000000000000000000000000000000000006020830152604082019050919050565b6000613a2b60108361456b565b91507f5061757361626c653a20706175736564000000000000000000000000000000006000830152602082019050919050565b6000613a6b60388361456b565b91507f4552433732313a20617070726f76652063616c6c6572206973206e6f74206f7760008301527f6e6572206e6f7220617070726f76656420666f7220616c6c00000000000000006020830152604082019050919050565b6000613ad1602a8361456b565b91507f4552433732313a2062616c616e636520717565727920666f7220746865207a6560008301527f726f2061646472657373000000000000000000000000000000000000000000006020830152604082019050919050565b6000613b3760298361456b565b91507f4552433732313a206f776e657220717565727920666f72206e6f6e657869737460008301527f656e7420746f6b656e00000000000000000000000000000000000000000000006020830152604082019050919050565b6000613b9d60208361456b565b91507f4552433732313a206d696e7420746f20746865207a65726f20616464726573736000830152602082019050919050565b6000613bdd602c8361456b565b91507f4552433732313a20617070726f76656420717565727920666f72206e6f6e657860008301527f697374656e7420746f6b656e00000000000000000000000000000000000000006020830152604082019050919050565b6000613c4360298361456b565b91507f4552433732313a207472616e73666572206f6620746f6b656e2074686174206960008301527f73206e6f74206f776e00000000000000000000000000000000000000000000006020830152604082019050919050565b6000613ca9602f8361456b565b91507f4552433732314d657461646174613a2055524920717565727920666f72206e6f60008301527f6e6578697374656e7420746f6b656e00000000000000000000000000000000006020830152604082019050919050565b6000613d0f60218361456b565b91507f4552433732313a20617070726f76616c20746f2063757272656e74206f776e6560008301527f72000000000000000000000000000000000000000000000000000000000000006020830152604082019050919050565b6000613d7560318361456b565b91507f4552433732313a207472616e736665722063616c6c6572206973206e6f74206f60008301527f776e6572206e6f7220617070726f7665640000000000000000000000000000006020830152604082019050919050565b6000613ddb602c8361456b565b91507f455243373231456e756d657261626c653a20676c6f62616c20696e646578206f60008301527f7574206f6620626f756e647300000000000000000000000000000000000000006020830152604082019050919050565b6000613e4160178361457c565b91507f416363657373436f6e74726f6c3a206163636f756e74200000000000000000006000830152601782019050919050565b6000613e81603d8361456b565b91507f4552433732315072657365744d696e7465725061757365724175746f49643a2060008301527f6d7573742068617665206d696e74657220726f6c6520746f206d696e740000006020830152604082019050919050565b6000613ee760308361456b565b91507f4552433732314275726e61626c653a2063616c6c6572206973206e6f74206f7760008301527f6e6572206e6f7220617070726f766564000000000000000000000000000000006020830152604082019050919050565b6000613f4d60408361456b565b91507f4552433732315072657365744d696e7465725061757365724175746f49643a2060008301527f6d75737420686176652070617573657220726f6c6520746f20756e70617573656020830152604082019050919050565b6000613fb360118361457c565b91507f206973206d697373696e6720726f6c65200000000000000000000000000000006000830152601182019050919050565b6000613ff3602f8361456b565b91507f416363657373436f6e74726f6c3a2063616e206f6e6c792072656e6f756e636560008301527f20726f6c657320666f722073656c6600000000000000000000000000000000006020830152604082019050919050565b61405581614710565b82525050565b60006140678285613689565b91506140738284613689565b91508190509392505050565b600061408a82613e34565b91506140968285613689565b91506140a182613fa6565b91506140ad8284613689565b91508190509392505050565b60006020820190506140ce60008301846135ea565b92915050565b60006080820190506140e960008301876135ea565b6140f660208301866135ea565b614103604083018561404c565b81810360608301526141158184613617565b905095945050505050565b600060208201905061413560008301846135f9565b92915050565b60006020820190506141506000830184613608565b92915050565b600060208201905081810360008301526141708184613650565b905092915050565b60006020820190508181036000830152614191816136ba565b9050919050565b600060208201905081810360008301526141b1816136fa565b9050919050565b600060208201905081810360008301526141d181613760565b9050919050565b600060208201905081810360008301526141f1816137a0565b9050919050565b6000602082019050818103600083015261421181613806565b9050919050565b600060208201905081810360008301526142318161386c565b9050919050565b60006020820190508181036000830152614251816138ac565b9050919050565b6000602082019050818103600083015261427181613912565b9050919050565b6000602082019050818103600083015261429181613978565b9050919050565b600060208201905081810360008301526142b1816139b8565b9050919050565b600060208201905081810360008301526142d181613a1e565b9050919050565b600060208201905081810360008301526142f181613a5e565b9050919050565b6000602082019050818103600083015261431181613ac4565b9050919050565b6000602082019050818103600083015261433181613b2a565b9050919050565b6000602082019050818103600083015261435181613b90565b9050919050565b6000602082019050818103600083015261437181613bd0565b9050919050565b6000602082019050818103600083015261439181613c36565b9050919050565b600060208201905081810360008301526143b181613c9c565b9050919050565b600060208201905081810360008301526143d181613d02565b9050919050565b600060208201905081810360008301526143f181613d68565b9050919050565b6000602082019050818103600083015261441181613dce565b9050919050565b6000602082019050818103600083015261443181613e74565b9050919050565b6000602082019050818103600083015261445181613eda565b9050919050565b6000602082019050818103600083015261447181613f40565b9050919050565b6000602082019050818103600083015261449181613fe6565b9050919050565b60006020820190506144ad600083018461404c565b92915050565b6000604051905081810181811067ffffffffffffffff821117156144da576144d96148bf565b5b8060405250919050565b600067ffffffffffffffff8211156144ff576144fe6148bf565b5b601f19601f8301169050602081019050919050565b600067ffffffffffffffff82111561452f5761452e6148bf565b5b601f19601f8301169050602081019050919050565b600081519050919050565b600081519050919050565b600082825260208201905092915050565b600082825260208201905092915050565b600081905092915050565b600061459282614710565b915061459d83614710565b9250827fffffffffffffffffffffffffffffffffffffffffffffffffffffffffffffffff038211156145d2576145d1614832565b5b828201905092915050565b60006145e882614710565b91506145f383614710565b92508261460357614602614861565b5b828204905092915050565b600061461982614710565b915061462483614710565b9250817fffffffffffffffffffffffffffffffffffffffffffffffffffffffffffffffff048311821515161561465d5761465c614832565b5b828202905092915050565b600061467382614710565b915061467e83614710565b92508282101561469157614690614832565b5b828203905092915050565b60006146a7826146f0565b9050919050565b60008115159050919050565b6000819050919050565b60007fffffffff0000000000000000000000000000000000000000000000000000000082169050919050565b600073ffffffffffffffffffffffffffffffffffffffff82169050919050565b6000819050919050565b82818337600083830152505050565b60005b8381101561474757808201518184015260208101905061472c565b83811115614756576000848401525b50505050565b600061476782614710565b9150600082141561477b5761477a614832565b5b600182039050919050565b6000600282049050600182168061479e57607f821691505b602082108114156147b2576147b1614890565b5b50919050565b60006147c382614710565b91507fffffffffffffffffffffffffffffffffffffffffffffffffffffffffffffffff8214156147f6576147f5614832565b5b600182019050919050565b600061480c82614710565b915061481783614710565b92508261482757614826614861565b5b828206905092915050565b7f4e487b7100000000000000000000000000000000000000000000000000000000600052601160045260246000fd5b7f4e487b7100000000000000000000000000000000000000000000000000000000600052601260045260246000fd5b7f4e487b7100000000000000000000000000000000000000000000000000000000600052602260045260246000fd5b7f4e487b7100000000000000000000000000000000000000000000000000000000600052604160045260246000fd5b6000601f19601f8301169050919050565b6149088161469c565b811461491357600080fd5b50565b61491f816146ae565b811461492a57600080fd5b50565b614936816146ba565b811461494157600080fd5b50565b61494d816146c4565b811461495857600080fd5b50565b61496481614710565b811461496f57600080fd5b5056fea2646970667358221220f762641e1120e94abcb2f6d2252b7baf79adfc9c0acec3e77638bda44bf5a24664736f6c63430008000033",
  "immutableReferences": {},
  "source": "// SPDX-License-Identifier: MIT\r\npragma solidity ^0.8.0;\r\nimport \"@openzeppelin/contracts/token/ERC721/presets/ERC721PresetMinterPauserAutoId.sol\";\r\n\r\ncontract NFTFactory is ERC721PresetMinterPauserAutoId {\r\n\r\n  address private _contractAddress;\r\n  string private _baseTokenURI;\r\n\r\n  constructor(string memory name, string memory symbol, string memory baseTokenURI, address contractAddress) ERC721(name, symbol) {\r\n      _baseTokenURI = baseTokenURI;\r\n      _contractAddress = contractAddress;\r\n\r\n      _setupRole(DEFAULT_ADMIN_ROLE, _msgSender());\r\n      _setupRole(MINTER_ROLE, _contractAddress);\r\n      _setupRole(PAUSER_ROLE, _msgSender());\r\n  }\r\n\r\n  /* function mint (string memory title, string memory dates, string memory place, uint8 Id, address to) public virtual {\r\n    require(msg.sender == trustedAddress, \"You cannot mint new tickets\");\r\n  } */\r\n}\r\n",
  "sourcePath": "C:\\Users\\User\\Desktop\\Ethereum\\EventTest\\contracts\\NFTFactory.sol",
  "compiler": {
    "name": "solc",
    "version": "0.8.0+commit.c7dfd78e.Emscripten.clang"
  },
  "schemaVersion": "3.3.3",
  "updatedAt": "2021-07-05T16:41:33.027Z",
  "devdoc": {
    "kind": "dev",
    "methods": {
      "approve(address,uint256)": {
        "details": "See {IERC721-approve}."
      },
      "balanceOf(address)": {
        "details": "See {IERC721-balanceOf}."
      },
      "burn(uint256)": {
        "details": "Burns `tokenId`. See {ERC721-_burn}. Requirements: - The caller must own `tokenId` or be an approved operator."
      },
      "getApproved(uint256)": {
        "details": "See {IERC721-getApproved}."
      },
      "getRoleAdmin(bytes32)": {
        "details": "Returns the admin role that controls `role`. See {grantRole} and {revokeRole}. To change a role's admin, use {_setRoleAdmin}."
      },
      "getRoleMember(bytes32,uint256)": {
        "details": "Returns one of the accounts that have `role`. `index` must be a value between 0 and {getRoleMemberCount}, non-inclusive. Role bearers are not sorted in any particular way, and their ordering may change at any point. WARNING: When using {getRoleMember} and {getRoleMemberCount}, make sure you perform all queries on the same block. See the following https://forum.openzeppelin.com/t/iterating-over-elements-on-enumerableset-in-openzeppelin-contracts/2296[forum post] for more information."
      },
      "getRoleMemberCount(bytes32)": {
        "details": "Returns the number of accounts that have `role`. Can be used together with {getRoleMember} to enumerate all bearers of a role."
      },
      "grantRole(bytes32,address)": {
        "details": "Overload {grantRole} to track enumerable memberships"
      },
      "hasRole(bytes32,address)": {
        "details": "Returns `true` if `account` has been granted `role`."
      },
      "isApprovedForAll(address,address)": {
        "details": "See {IERC721-isApprovedForAll}."
      },
      "mint(string,string,string,address)": {
        "details": "Creates a new token for `to`. Its token ID will be automatically assigned (and available on the emitted {IERC721-Transfer} event), and the token URI autogenerated based on the base URI passed at construction. See {ERC721-_mint}. Requirements: - the caller must have the `MINTER_ROLE`."
      },
      "name()": {
        "details": "See {IERC721Metadata-name}."
      },
      "ownerOf(uint256)": {
        "details": "See {IERC721-ownerOf}."
      },
      "pause()": {
        "details": "Pauses all token transfers. See {ERC721Pausable} and {Pausable-_pause}. Requirements: - the caller must have the `PAUSER_ROLE`."
      },
      "paused()": {
        "details": "Returns true if the contract is paused, and false otherwise."
      },
      "renounceRole(bytes32,address)": {
        "details": "Overload {renounceRole} to track enumerable memberships"
      },
      "revokeRole(bytes32,address)": {
        "details": "Overload {revokeRole} to track enumerable memberships"
      },
      "safeTransferFrom(address,address,uint256)": {
        "details": "See {IERC721-safeTransferFrom}."
      },
      "safeTransferFrom(address,address,uint256,bytes)": {
        "details": "See {IERC721-safeTransferFrom}."
      },
      "setApprovalForAll(address,bool)": {
        "details": "See {IERC721-setApprovalForAll}."
      },
      "supportsInterface(bytes4)": {
        "details": "See {IERC165-supportsInterface}."
      },
      "symbol()": {
        "details": "See {IERC721Metadata-symbol}."
      },
      "tokenByIndex(uint256)": {
        "details": "See {IERC721Enumerable-tokenByIndex}."
      },
      "tokenOfOwnerByIndex(address,uint256)": {
        "details": "See {IERC721Enumerable-tokenOfOwnerByIndex}."
      },
      "tokenURI(uint256)": {
        "details": "See {IERC721Metadata-tokenURI}."
      },
      "totalSupply()": {
        "details": "See {IERC721Enumerable-totalSupply}."
      },
      "transferFrom(address,address,uint256)": {
        "details": "See {IERC721-transferFrom}."
      },
      "unpause()": {
        "details": "Unpauses all token transfers. See {ERC721Pausable} and {Pausable-_unpause}. Requirements: - the caller must have the `PAUSER_ROLE`."
      }
    },
    "version": 1
  },
  "userdoc": {
    "kind": "user",
    "methods": {},
    "version": 1
  }
}